{
  "address": "0xC460a8a091d6BBacd8490601FFE0b2cd1f76FDda",
  "abi": [
    {
      "inputs": [
        {
          "internalType": "address",
          "name": "_WETH9",
          "type": "address"
        },
        {
          "internalType": "bytes32",
          "name": "_nativeCurrencyLabelBytes",
          "type": "bytes32"
        }
      ],
      "stateMutability": "nonpayable",
      "type": "constructor"
    },
    {
      "inputs": [],
      "name": "WETH9",
      "outputs": [
        {
          "internalType": "address",
          "name": "",
          "type": "address"
        }
      ],
      "stateMutability": "view",
      "type": "function"
    },
    {
      "inputs": [
        {
          "internalType": "address",
          "name": "token0",
          "type": "address"
        },
        {
          "internalType": "address",
          "name": "token1",
          "type": "address"
        },
        {
          "internalType": "uint256",
          "name": "chainId",
          "type": "uint256"
        }
      ],
      "name": "flipRatio",
      "outputs": [
        {
          "internalType": "bool",
          "name": "",
          "type": "bool"
        }
      ],
      "stateMutability": "view",
      "type": "function"
    },
    {
      "inputs": [],
      "name": "nativeCurrencyLabel",
      "outputs": [
        {
          "internalType": "string",
          "name": "",
          "type": "string"
        }
      ],
      "stateMutability": "view",
      "type": "function"
    },
    {
      "inputs": [],
      "name": "nativeCurrencyLabelBytes",
      "outputs": [
        {
          "internalType": "bytes32",
          "name": "",
          "type": "bytes32"
        }
      ],
      "stateMutability": "view",
      "type": "function"
    },
    {
      "inputs": [
        {
          "internalType": "address",
          "name": "token",
          "type": "address"
        },
        {
          "internalType": "uint256",
          "name": "chainId",
          "type": "uint256"
        }
      ],
      "name": "tokenRatioPriority",
      "outputs": [
        {
          "internalType": "int256",
          "name": "",
          "type": "int256"
        }
      ],
      "stateMutability": "view",
      "type": "function"
    },
    {
      "inputs": [
        {
          "internalType": "contract INonfungiblePositionManager",
          "name": "positionManager",
          "type": "address"
        },
        {
          "internalType": "uint256",
          "name": "tokenId",
          "type": "uint256"
        }
      ],
      "name": "tokenURI",
      "outputs": [
        {
          "internalType": "string",
          "name": "",
          "type": "string"
        }
      ],
      "stateMutability": "view",
      "type": "function"
    }
  ],
  "transactionHash": "0x097001482b276d38b0aee02b5d275ddc65c9ef6a6755614dc9e3e9f626ca7627",
  "args": [
    "0x4300000000000000000000000000000000000004",
    "0x4554480000000000000000000000000000000000000000000000000000000000"
  ],
  "numDeployments": 1,
  "solcInputHash": "ea60614e3469b4e257ff0520ccc94c75",
  "bytecode": "0x60c060405234801561001057600080fd5b506040516114c33803806114c383398101604081905261002f9161004a565b60609190911b6001600160601b03191660805260a052610082565b6000806040838503121561005c578182fd5b82516001600160a01b0381168114610072578283fd5b6020939093015192949293505050565b60805160601c60a0516114026100c1600039806101d2528061020652806102ba525080610107528061014c528061055d52806105b152506114026000f3fe608060405234801561001057600080fd5b50600436106100725760003560e01c8063a18246e211610050578063a18246e2146100d5578063b7af3cdc146100dd578063e9dc6375146100f257610072565b80634aa4a4fc146100775780637e5af771146100955780639d7b0ea8146100b5575b600080fd5b61007f610105565b60405161008c9190611254565b60405180910390f35b6100a86100a3366004610f5a565b610129565b60405161008c9190611268565b6100c86100c3366004610f9a565b610148565b60405161008c9190611273565b6100c86101d0565b6100e56101f4565b60405161008c919061127c565b6100e5610100366004610f9a565b61031a565b7f000000000000000000000000000000000000000000000000000000000000000081565b60006101358383610148565b61013f8584610148565b13949350505050565b60007f00000000000000000000000000000000000000000000000000000000000000006001600160a01b0316836001600160a01b0316141561018d57506063196101ca565b8162013e3114156101c6576001600160a01b03831673430000000000000000000000000000000000000314156101c6575061012c6101ca565b5060005b92915050565b7f000000000000000000000000000000000000000000000000000000000000000081565b606060005b60208110801561025957507f0000000000000000000000000000000000000000000000000000000000000000816020811061023057fe5b1a60f81b7fff000000000000000000000000000000000000000000000000000000000000001615155b15610266576001016101f9565b60008167ffffffffffffffff8111801561027f57600080fd5b506040519080825280601f01601f1916602001820160405280156102aa576020820181803683370190505b50905060005b82811015610313577f000000000000000000000000000000000000000000000000000000000000000081602081106102e457fe5b1a60f81b8282815181106102f457fe5b60200101906001600160f81b031916908160001a9053506001016102b0565b5091505090565b60606000806000806000876001600160a01b03166399fbab88886040518263ffffffff1660e01b81526004016103509190611273565b6101806040518083038186803b15801561036957600080fd5b505afa15801561037d573d6000803e3d6000fd5b505050506040513d601f19601f820116820180604052508101906103a1919061111f565b5050505050965096509650965096505050600061045f896001600160a01b031663c45a01556040518163ffffffff1660e01b815260040160206040518083038186803b1580156103f057600080fd5b505afa158015610404573d6000803e3d6000fd5b505050506040513d601f19601f820116820180604052508101906104289190610f37565b6040518060600160405280896001600160a01b03168152602001886001600160a01b031681526020018762ffffff1681525061082a565b9050600061047087876100a3610926565b9050600081156104805787610482565b865b9050600082156104925787610494565b885b90506000846001600160a01b0316633850c7bd6040518163ffffffff1660e01b815260040160e06040518083038186803b1580156104d157600080fd5b505afa1580156104e5573d6000803e3d6000fd5b505050506040513d601f19601f820116820180604052508101906105099190611076565b505050505091505073779E43Fc329EAb070ECA168E366a383e5bE96a5063c49917d7604051806101c001604052808f8152602001866001600160a01b03168152602001856001600160a01b031681526020017f00000000000000000000000000000000000000000000000000000000000000006001600160a01b0316876001600160a01b0316146105a25761059d8761092a565b6105aa565b6105aa6101f4565b81526020017f00000000000000000000000000000000000000000000000000000000000000006001600160a01b0316866001600160a01b0316146105f6576105f18661092a565b6105fe565b6105fe6101f4565b8152602001866001600160a01b031663313ce5676040518163ffffffff1660e01b815260040160206040518083038186803b15801561063c57600080fd5b505afa158015610650573d6000803e3d6000fd5b505050506040513d601f19601f820116820180604052508101906106749190611105565b60ff168152602001856001600160a01b031663313ce5676040518163ffffffff1660e01b815260040160206040518083038186803b1580156106b557600080fd5b505afa1580156106c9573d6000803e3d6000fd5b505050506040513d601f19601f820116820180604052508101906106ed9190611105565b60ff16815260200187151581526020018a60020b81526020018960020b81526020018460020b8152602001886001600160a01b031663d0c93a7c6040518163ffffffff1660e01b815260040160206040518083038186803b15801561075157600080fd5b505afa158015610765573d6000803e3d6000fd5b505050506040513d601f19601f820116820180604052508101906107899190610fc5565b60020b81526020018b62ffffff168152602001886001600160a01b03168152506040518263ffffffff1660e01b81526004016107c5919061128f565b60006040518083038186803b1580156107dd57600080fd5b505af41580156107f1573d6000803e3d6000fd5b505050506040513d6000823e601f3d908101601f191682016040526108199190810190610fdf565b9d9c50505050505050505050505050565b600081602001516001600160a01b031682600001516001600160a01b03161061085257600080fd5b50805160208083015160409384015184516001600160a01b0394851681850152939091168385015262ffffff166060808401919091528351808403820181526080840185528051908301207fff0000000000000000000000000000000000000000000000000000000000000060a085015294901b6bffffffffffffffffffffffff191660a183015260b58201939093527f708ef7fcba73b894862b667ec8c8ea3bef8c3f2a022dc8314152dfb52b4a1b6760d5808301919091528251808303909101815260f5909101909152805191012090565b4690565b60606000610958837f95d89b410000000000000000000000000000000000000000000000000000000061097d565b90508051600014156109755761096d83610bd2565b915050610978565b90505b919050565b60408051600481526024810182526020810180517bffffffffffffffffffffffffffffffffffffffffffffffffffffffff167fffffffff0000000000000000000000000000000000000000000000000000000085161781529151815160609360009384936001600160a01b03891693919290918291908083835b60208310610a165780518252601f1990920191602091820191016109f7565b6001836020036101000a038019825116818451168082178552505050505050905001915050600060405180830381855afa9150503d8060008114610a76576040519150601f19603f3d011682016040523d82523d6000602084013e610a7b565b606091505b5091509150811580610a8c57508051155b15610aaa5760405180602001604052806000815250925050506101ca565b805160201415610ae2576000818060200190516020811015610acb57600080fd5b50519050610ad881610bdf565b93505050506101ca565b604081511115610bba57808060200190516020811015610b0157600080fd5b8101908080516040519392919084640100000000821115610b2157600080fd5b908301906020820185811115610b3657600080fd5b8251640100000000811182820188101715610b5057600080fd5b82525081516020918201929091019080838360005b83811015610b7d578181015183820152602001610b65565b50505050905090810190601f168015610baa5780820380516001836020036101000a031916815260200191505b50604052505050925050506101ca565b50506040805160208101909152600081529392505050565b6060610975826006610d1f565b604080516020808252818301909252606091600091906020820181803683370190505090506000805b6020811015610c81576000858260208110610c1f57fe5b1a60f81b90507fff00000000000000000000000000000000000000000000000000000000000000811615610c785780848481518110610c5a57fe5b60200101906001600160f81b031916908160001a9053506001909201915b50600101610c08565b5060008167ffffffffffffffff81118015610c9b57600080fd5b506040519080825280601f01601f191660200182016040528015610cc6576020820181803683370190505b50905060005b82811015610d1657838181518110610ce057fe5b602001015160f81c60f81b828281518110610cf757fe5b60200101906001600160f81b031916908160001a905350600101610ccc565b50949350505050565b606060028206158015610d325750600082115b8015610d3f575060288211155b610daa57604080517f08c379a000000000000000000000000000000000000000000000000000000000815260206004820152601e60248201527f41646472657373537472696e675574696c3a20494e56414c49445f4c454e0000604482015290519081900360640190fd5b60008267ffffffffffffffff81118015610dc357600080fd5b506040519080825280601f01601f191660200182016040528015610dee576020820181803683370190505b5090506001600160a01b03841660005b60028504811015610e9257600860138290030282901c600f600482901c1660f082168203610e2b82610e9c565b868560020281518110610e3a57fe5b60200101906001600160f81b031916908160001a905350610e5a81610e9c565b868560020260010181518110610e6c57fe5b60200101906001600160f81b031916908160001a9053505060019092019150610dfe9050565b5090949350505050565b6000600a8260ff161015610eb757506030810160f81b610978565b506037810160f81b610978565b8051610978816113dd565b8051600281900b811461097857600080fd5b80516fffffffffffffffffffffffffffffffff8116811461097857600080fd5b805161ffff8116811461097857600080fd5b805162ffffff8116811461097857600080fd5b805160ff8116811461097857600080fd5b600060208284031215610f48578081fd5b8151610f53816113dd565b9392505050565b600080600060608486031215610f6e578182fd5b8335610f79816113dd565b92506020840135610f89816113dd565b929592945050506040919091013590565b60008060408385031215610fac578182fd5b8235610fb7816113dd565b946020939093013593505050565b600060208284031215610fd6578081fd5b610f5382610ecf565b600060208284031215610ff0578081fd5b815167ffffffffffffffff80821115611007578283fd5b818401915084601f83011261101a578283fd5b81518181111561102657fe5b604051601f8201601f19168101602001838111828210171561104457fe5b60405281815283820160200187101561105b578485fd5b61106c8260208301602087016113ad565b9695505050505050565b600080600080600080600060e0888a031215611090578283fd5b875161109b816113dd565b96506110a960208901610ecf565b95506110b760408901610f01565b94506110c560608901610f01565b93506110d360808901610f01565b92506110e160a08901610f26565b915060c088015180151581146110f5578182fd5b8091505092959891949750929550565b600060208284031215611116578081fd5b610f5382610f26565b6000806000806000806000806000806000806101808d8f031215611141578485fd5b8c516bffffffffffffffffffffffff8116811461115c578586fd5b9b5061116a60208e01610ec4565b9a5061117860408e01610ec4565b995061118660608e01610ec4565b985061119460808e01610f13565b97506111a260a08e01610ecf565b96506111b060c08e01610ecf565b95506111be60e08e01610ee1565b94506101008d015193506101208d015192506111dd6101408e01610ee1565b91506111ec6101608e01610ee1565b90509295989b509295989b509295989b565b6001600160a01b03169052565b15159052565b60020b9052565b600081518084526112308160208601602086016113ad565b601f01601f19169290920160200192915050565b62ffffff169052565b60ff169052565b6001600160a01b0391909116815260200190565b901515815260200190565b90815260200190565b600060208252610f536020830184611218565b6000602082528251602083015260208301516112ae60408401826111fe565b5060408301516112c160608401826111fe565b5060608301516101c08060808501526112de6101e0850183611218565b91506080850151601f198584030160a08601526112fb8382611218565b92505060a085015161131060c086018261124d565b5060c085015161132360e086018261124d565b5060e08501516101006113388187018361120b565b860151905061012061134c86820183611211565b860151905061014061136086820183611211565b860151905061016061137486820183611211565b860151905061018061138886820183611211565b86015190506101a061139c86820183611244565b8601519050610e92858301826111fe565b60005b838110156113c85781810151838201526020016113b0565b838111156113d7576000848401525b50505050565b6001600160a01b03811681146113f257600080fd5b5056fea164736f6c6343000706000a",
  "deployedBytecode": "0x608060405234801561001057600080fd5b50600436106100725760003560e01c8063a18246e211610050578063a18246e2146100d5578063b7af3cdc146100dd578063e9dc6375146100f257610072565b80634aa4a4fc146100775780637e5af771146100955780639d7b0ea8146100b5575b600080fd5b61007f610105565b60405161008c9190611254565b60405180910390f35b6100a86100a3366004610f5a565b610129565b60405161008c9190611268565b6100c86100c3366004610f9a565b610148565b60405161008c9190611273565b6100c86101d0565b6100e56101f4565b60405161008c919061127c565b6100e5610100366004610f9a565b61031a565b7f000000000000000000000000000000000000000000000000000000000000000081565b60006101358383610148565b61013f8584610148565b13949350505050565b60007f00000000000000000000000000000000000000000000000000000000000000006001600160a01b0316836001600160a01b0316141561018d57506063196101ca565b8162013e3114156101c6576001600160a01b03831673430000000000000000000000000000000000000314156101c6575061012c6101ca565b5060005b92915050565b7f000000000000000000000000000000000000000000000000000000000000000081565b606060005b60208110801561025957507f0000000000000000000000000000000000000000000000000000000000000000816020811061023057fe5b1a60f81b7fff000000000000000000000000000000000000000000000000000000000000001615155b15610266576001016101f9565b60008167ffffffffffffffff8111801561027f57600080fd5b506040519080825280601f01601f1916602001820160405280156102aa576020820181803683370190505b50905060005b82811015610313577f000000000000000000000000000000000000000000000000000000000000000081602081106102e457fe5b1a60f81b8282815181106102f457fe5b60200101906001600160f81b031916908160001a9053506001016102b0565b5091505090565b60606000806000806000876001600160a01b03166399fbab88886040518263ffffffff1660e01b81526004016103509190611273565b6101806040518083038186803b15801561036957600080fd5b505afa15801561037d573d6000803e3d6000fd5b505050506040513d601f19601f820116820180604052508101906103a1919061111f565b5050505050965096509650965096505050600061045f896001600160a01b031663c45a01556040518163ffffffff1660e01b815260040160206040518083038186803b1580156103f057600080fd5b505afa158015610404573d6000803e3d6000fd5b505050506040513d601f19601f820116820180604052508101906104289190610f37565b6040518060600160405280896001600160a01b03168152602001886001600160a01b031681526020018762ffffff1681525061082a565b9050600061047087876100a3610926565b9050600081156104805787610482565b865b9050600082156104925787610494565b885b90506000846001600160a01b0316633850c7bd6040518163ffffffff1660e01b815260040160e06040518083038186803b1580156104d157600080fd5b505afa1580156104e5573d6000803e3d6000fd5b505050506040513d601f19601f820116820180604052508101906105099190611076565b505050505091505073__$cea9be979eee3d87fb124d6cbb244bb0b5$__63c49917d7604051806101c001604052808f8152602001866001600160a01b03168152602001856001600160a01b031681526020017f00000000000000000000000000000000000000000000000000000000000000006001600160a01b0316876001600160a01b0316146105a25761059d8761092a565b6105aa565b6105aa6101f4565b81526020017f00000000000000000000000000000000000000000000000000000000000000006001600160a01b0316866001600160a01b0316146105f6576105f18661092a565b6105fe565b6105fe6101f4565b8152602001866001600160a01b031663313ce5676040518163ffffffff1660e01b815260040160206040518083038186803b15801561063c57600080fd5b505afa158015610650573d6000803e3d6000fd5b505050506040513d601f19601f820116820180604052508101906106749190611105565b60ff168152602001856001600160a01b031663313ce5676040518163ffffffff1660e01b815260040160206040518083038186803b1580156106b557600080fd5b505afa1580156106c9573d6000803e3d6000fd5b505050506040513d601f19601f820116820180604052508101906106ed9190611105565b60ff16815260200187151581526020018a60020b81526020018960020b81526020018460020b8152602001886001600160a01b031663d0c93a7c6040518163ffffffff1660e01b815260040160206040518083038186803b15801561075157600080fd5b505afa158015610765573d6000803e3d6000fd5b505050506040513d601f19601f820116820180604052508101906107899190610fc5565b60020b81526020018b62ffffff168152602001886001600160a01b03168152506040518263ffffffff1660e01b81526004016107c5919061128f565b60006040518083038186803b1580156107dd57600080fd5b505af41580156107f1573d6000803e3d6000fd5b505050506040513d6000823e601f3d908101601f191682016040526108199190810190610fdf565b9d9c50505050505050505050505050565b600081602001516001600160a01b031682600001516001600160a01b03161061085257600080fd5b50805160208083015160409384015184516001600160a01b0394851681850152939091168385015262ffffff166060808401919091528351808403820181526080840185528051908301207fff0000000000000000000000000000000000000000000000000000000000000060a085015294901b6bffffffffffffffffffffffff191660a183015260b58201939093527f708ef7fcba73b894862b667ec8c8ea3bef8c3f2a022dc8314152dfb52b4a1b6760d5808301919091528251808303909101815260f5909101909152805191012090565b4690565b60606000610958837f95d89b410000000000000000000000000000000000000000000000000000000061097d565b90508051600014156109755761096d83610bd2565b915050610978565b90505b919050565b60408051600481526024810182526020810180517bffffffffffffffffffffffffffffffffffffffffffffffffffffffff167fffffffff0000000000000000000000000000000000000000000000000000000085161781529151815160609360009384936001600160a01b03891693919290918291908083835b60208310610a165780518252601f1990920191602091820191016109f7565b6001836020036101000a038019825116818451168082178552505050505050905001915050600060405180830381855afa9150503d8060008114610a76576040519150601f19603f3d011682016040523d82523d6000602084013e610a7b565b606091505b5091509150811580610a8c57508051155b15610aaa5760405180602001604052806000815250925050506101ca565b805160201415610ae2576000818060200190516020811015610acb57600080fd5b50519050610ad881610bdf565b93505050506101ca565b604081511115610bba57808060200190516020811015610b0157600080fd5b8101908080516040519392919084640100000000821115610b2157600080fd5b908301906020820185811115610b3657600080fd5b8251640100000000811182820188101715610b5057600080fd5b82525081516020918201929091019080838360005b83811015610b7d578181015183820152602001610b65565b50505050905090810190601f168015610baa5780820380516001836020036101000a031916815260200191505b50604052505050925050506101ca565b50506040805160208101909152600081529392505050565b6060610975826006610d1f565b604080516020808252818301909252606091600091906020820181803683370190505090506000805b6020811015610c81576000858260208110610c1f57fe5b1a60f81b90507fff00000000000000000000000000000000000000000000000000000000000000811615610c785780848481518110610c5a57fe5b60200101906001600160f81b031916908160001a9053506001909201915b50600101610c08565b5060008167ffffffffffffffff81118015610c9b57600080fd5b506040519080825280601f01601f191660200182016040528015610cc6576020820181803683370190505b50905060005b82811015610d1657838181518110610ce057fe5b602001015160f81c60f81b828281518110610cf757fe5b60200101906001600160f81b031916908160001a905350600101610ccc565b50949350505050565b606060028206158015610d325750600082115b8015610d3f575060288211155b610daa57604080517f08c379a000000000000000000000000000000000000000000000000000000000815260206004820152601e60248201527f41646472657373537472696e675574696c3a20494e56414c49445f4c454e0000604482015290519081900360640190fd5b60008267ffffffffffffffff81118015610dc357600080fd5b506040519080825280601f01601f191660200182016040528015610dee576020820181803683370190505b5090506001600160a01b03841660005b60028504811015610e9257600860138290030282901c600f600482901c1660f082168203610e2b82610e9c565b868560020281518110610e3a57fe5b60200101906001600160f81b031916908160001a905350610e5a81610e9c565b868560020260010181518110610e6c57fe5b60200101906001600160f81b031916908160001a9053505060019092019150610dfe9050565b5090949350505050565b6000600a8260ff161015610eb757506030810160f81b610978565b506037810160f81b610978565b8051610978816113dd565b8051600281900b811461097857600080fd5b80516fffffffffffffffffffffffffffffffff8116811461097857600080fd5b805161ffff8116811461097857600080fd5b805162ffffff8116811461097857600080fd5b805160ff8116811461097857600080fd5b600060208284031215610f48578081fd5b8151610f53816113dd565b9392505050565b600080600060608486031215610f6e578182fd5b8335610f79816113dd565b92506020840135610f89816113dd565b929592945050506040919091013590565b60008060408385031215610fac578182fd5b8235610fb7816113dd565b946020939093013593505050565b600060208284031215610fd6578081fd5b610f5382610ecf565b600060208284031215610ff0578081fd5b815167ffffffffffffffff80821115611007578283fd5b818401915084601f83011261101a578283fd5b81518181111561102657fe5b604051601f8201601f19168101602001838111828210171561104457fe5b60405281815283820160200187101561105b578485fd5b61106c8260208301602087016113ad565b9695505050505050565b600080600080600080600060e0888a031215611090578283fd5b875161109b816113dd565b96506110a960208901610ecf565b95506110b760408901610f01565b94506110c560608901610f01565b93506110d360808901610f01565b92506110e160a08901610f26565b915060c088015180151581146110f5578182fd5b8091505092959891949750929550565b600060208284031215611116578081fd5b610f5382610f26565b6000806000806000806000806000806000806101808d8f031215611141578485fd5b8c516bffffffffffffffffffffffff8116811461115c578586fd5b9b5061116a60208e01610ec4565b9a5061117860408e01610ec4565b995061118660608e01610ec4565b985061119460808e01610f13565b97506111a260a08e01610ecf565b96506111b060c08e01610ecf565b95506111be60e08e01610ee1565b94506101008d015193506101208d015192506111dd6101408e01610ee1565b91506111ec6101608e01610ee1565b90509295989b509295989b509295989b565b6001600160a01b03169052565b15159052565b60020b9052565b600081518084526112308160208601602086016113ad565b601f01601f19169290920160200192915050565b62ffffff169052565b60ff169052565b6001600160a01b0391909116815260200190565b901515815260200190565b90815260200190565b600060208252610f536020830184611218565b6000602082528251602083015260208301516112ae60408401826111fe565b5060408301516112c160608401826111fe565b5060608301516101c08060808501526112de6101e0850183611218565b91506080850151601f198584030160a08601526112fb8382611218565b92505060a085015161131060c086018261124d565b5060c085015161132360e086018261124d565b5060e08501516101006113388187018361120b565b860151905061012061134c86820183611211565b860151905061014061136086820183611211565b860151905061016061137486820183611211565b860151905061018061138886820183611211565b86015190506101a061139c86820183611244565b8601519050610e92858301826111fe565b60005b838110156113c85781810151838201526020016113b0565b838111156113d7576000848401525b50505050565b6001600160a01b03811681146113f257600080fd5b5056fea164736f6c6343000706000a",
  "libraries": {
    "NFTDescriptor": "0x779E43Fc329EAb070ECA168E366a383e5bE96a50"
  }
}