{
  "address": "0x975E72ef8897F85635F7C68456D1F07214c94A5E",
  "abi": [
    {
      "inputs": [
        {
          "internalType": "address",
          "name": "_factory",
          "type": "address"
        },
        {
          "internalType": "address",
          "name": "_WETH9",
          "type": "address"
        }
      ],
      "stateMutability": "nonpayable",
      "type": "constructor"
    },
    {
      "inputs": [],
      "name": "WETH9",
      "outputs": [
        {
          "internalType": "address",
          "name": "",
          "type": "address"
        }
      ],
      "stateMutability": "view",
      "type": "function"
    },
    {
      "inputs": [
        {
          "internalType": "int256",
          "name": "amount0Delta",
          "type": "int256"
        },
        {
          "internalType": "int256",
          "name": "amount1Delta",
          "type": "int256"
        },
        {
          "internalType": "bytes",
          "name": "path",
          "type": "bytes"
        }
      ],
      "name": "blasterswapV3SwapCallback",
      "outputs": [],
      "stateMutability": "view",
      "type": "function"
    },
    {
      "inputs": [],
      "name": "factory",
      "outputs": [
        {
          "internalType": "address",
          "name": "",
          "type": "address"
        }
      ],
      "stateMutability": "view",
      "type": "function"
    },
    {
      "inputs": [
        {
          "internalType": "bytes",
          "name": "path",
          "type": "bytes"
        },
        {
          "internalType": "uint256",
          "name": "amountIn",
          "type": "uint256"
        }
      ],
      "name": "quoteExactInput",
      "outputs": [
        {
          "internalType": "uint256",
          "name": "amountOut",
          "type": "uint256"
        },
        {
          "internalType": "uint160[]",
          "name": "sqrtPriceX96AfterList",
          "type": "uint160[]"
        },
        {
          "internalType": "uint32[]",
          "name": "initializedTicksCrossedList",
          "type": "uint32[]"
        },
        {
          "internalType": "uint256",
          "name": "gasEstimate",
          "type": "uint256"
        }
      ],
      "stateMutability": "nonpayable",
      "type": "function"
    },
    {
      "inputs": [
        {
          "internalType": "bytes[]",
          "name": "paths",
          "type": "bytes[]"
        },
        {
          "internalType": "uint256[]",
          "name": "amountsIn",
          "type": "uint256[]"
        }
      ],
      "name": "quoteExactInputMultiple",
      "outputs": [
        {
          "internalType": "uint256[]",
          "name": "amountsOut",
          "type": "uint256[]"
        }
      ],
      "stateMutability": "nonpayable",
      "type": "function"
    },
    {
      "inputs": [
        {
          "components": [
            {
              "internalType": "address",
              "name": "tokenIn",
              "type": "address"
            },
            {
              "internalType": "address",
              "name": "tokenOut",
              "type": "address"
            },
            {
              "internalType": "uint256",
              "name": "amountIn",
              "type": "uint256"
            },
            {
              "internalType": "uint24",
              "name": "fee",
              "type": "uint24"
            },
            {
              "internalType": "uint160",
              "name": "sqrtPriceLimitX96",
              "type": "uint160"
            }
          ],
          "internalType": "struct IQuoterV2.QuoteExactInputSingleParams",
          "name": "params",
          "type": "tuple"
        }
      ],
      "name": "quoteExactInputSingle",
      "outputs": [
        {
          "internalType": "uint256",
          "name": "amountOut",
          "type": "uint256"
        },
        {
          "internalType": "uint160",
          "name": "sqrtPriceX96After",
          "type": "uint160"
        },
        {
          "internalType": "uint32",
          "name": "initializedTicksCrossed",
          "type": "uint32"
        },
        {
          "internalType": "uint256",
          "name": "gasEstimate",
          "type": "uint256"
        }
      ],
      "stateMutability": "nonpayable",
      "type": "function"
    },
    {
      "inputs": [
        {
          "internalType": "bytes",
          "name": "path",
          "type": "bytes"
        },
        {
          "internalType": "uint256",
          "name": "amountOut",
          "type": "uint256"
        }
      ],
      "name": "quoteExactOutput",
      "outputs": [
        {
          "internalType": "uint256",
          "name": "amountIn",
          "type": "uint256"
        },
        {
          "internalType": "uint160[]",
          "name": "sqrtPriceX96AfterList",
          "type": "uint160[]"
        },
        {
          "internalType": "uint32[]",
          "name": "initializedTicksCrossedList",
          "type": "uint32[]"
        },
        {
          "internalType": "uint256",
          "name": "gasEstimate",
          "type": "uint256"
        }
      ],
      "stateMutability": "nonpayable",
      "type": "function"
    },
    {
      "inputs": [
        {
          "internalType": "bytes[]",
          "name": "paths",
          "type": "bytes[]"
        },
        {
          "internalType": "uint256[]",
          "name": "amountsOut",
          "type": "uint256[]"
        }
      ],
      "name": "quoteExactOutputMultiple",
      "outputs": [
        {
          "internalType": "uint256[]",
          "name": "amountsIn",
          "type": "uint256[]"
        }
      ],
      "stateMutability": "nonpayable",
      "type": "function"
    },
    {
      "inputs": [
        {
          "components": [
            {
              "internalType": "address",
              "name": "tokenIn",
              "type": "address"
            },
            {
              "internalType": "address",
              "name": "tokenOut",
              "type": "address"
            },
            {
              "internalType": "uint256",
              "name": "amount",
              "type": "uint256"
            },
            {
              "internalType": "uint24",
              "name": "fee",
              "type": "uint24"
            },
            {
              "internalType": "uint160",
              "name": "sqrtPriceLimitX96",
              "type": "uint160"
            }
          ],
          "internalType": "struct IQuoterV2.QuoteExactOutputSingleParams",
          "name": "params",
          "type": "tuple"
        }
      ],
      "name": "quoteExactOutputSingle",
      "outputs": [
        {
          "internalType": "uint256",
          "name": "amountIn",
          "type": "uint256"
        },
        {
          "internalType": "uint160",
          "name": "sqrtPriceX96After",
          "type": "uint160"
        },
        {
          "internalType": "uint32",
          "name": "initializedTicksCrossed",
          "type": "uint32"
        },
        {
          "internalType": "uint256",
          "name": "gasEstimate",
          "type": "uint256"
        }
      ],
      "stateMutability": "nonpayable",
      "type": "function"
    }
  ],
  "transactionHash": "0x3b47964a76dfc89a00094d140c418614ca3bdad8910ea17c20b95ec2e0cb9d22",
  "args": [
    "0x1A8027625C830aAC43aD82a3f7cD6D5fdCE89d78",
    "0x4300000000000000000000000000000000000004"
  ],
  "numDeployments": 3,
  "solcInputHash": "a3834a14832b2759d1ec661e54c10d9e",
  "bytecode": "0x60c06040523480156200001157600080fd5b506040516200248c3803806200248c833981016040819052620000349162000070565b6001600160601b0319606092831b8116608052911b1660a052620000a7565b80516001600160a01b03811681146200006b57600080fd5b919050565b6000806040838503121562000083578182fd5b6200008e8362000053565b91506200009e6020840162000053565b90509250929050565b60805160601c60a05160601c6123b1620000db600039806104f552508061074b5280610ca55280610eda52506123b16000f3fe608060405234801561001057600080fd5b50600436106100a35760003560e01c8063c45a015511610076578063cdca17531161005b578063cdca175314610147578063e14a10e31461015a578063e8d917fe1461016d576100a3565b8063c45a01551461012c578063c6a5026a14610134576100a3565b80632f80bb1d146100a85780634596118b146100d45780634aa4a4fc146100f4578063bd21704a14610109575b600080fd5b6100bb6100b6366004611f3e565b610182565b6040516100cb949392919061225e565b60405180910390f35b6100e76100e2366004611e8e565b610378565b6040516100cb919061221a565b6100fc6104f3565b6040516100cb919061214e565b61011c610117366004611ff2565b610517565b6040516100cb9493929190612306565b6100fc610749565b61011c610142366004611ff2565b61076d565b6100bb610155366004611f3e565b610928565b6100e7610168366004611e8e565b610b00565b61018061017b366004611fa4565b610c74565b005b6000606080600061019286610e30565b67ffffffffffffffff811180156101a857600080fd5b506040519080825280602002602001820160405280156101d2578160200160208202803683370190505b5092506101de86610e30565b67ffffffffffffffff811180156101f457600080fd5b5060405190808252806020026020018201604052801561021e578160200160208202803683370190505b50915060005b60008060006102328a610e5f565b9250925092506000806000806102b56040518060a001604052808873ffffffffffffffffffffffffffffffffffffffff1681526020018973ffffffffffffffffffffffffffffffffffffffff1681526020018f81526020018762ffffff168152602001600073ffffffffffffffffffffffffffffffffffffffff16815250610517565b9350935093509350828b89815181106102ca57fe5b602002602001019073ffffffffffffffffffffffffffffffffffffffff16908173ffffffffffffffffffffffffffffffffffffffff1681525050818a898151811061031157fe5b63ffffffff90921660209283029190910190910152929b50968201966001909601958b9261033e8e610e90565b156103535761034c8e610e98565b9d50610363565b8c9b50505050505050505061036f565b50505050505050610224565b92959194509250565b6060815167ffffffffffffffff8111801561039257600080fd5b506040519080825280602002602001820160405280156103bc578160200160208202803683370190505b50905060005b83518110156104ec576000808483815181106103da57fe5b6020026020010151905060008684815181106103f257fe5b602002602001015190505b600080600061040b84610e5f565b925092509250600061048a6040518060a001604052808573ffffffffffffffffffffffffffffffffffffffff1681526020018673ffffffffffffffffffffffffffffffffffffffff1681526020018881526020018462ffffff168152602001600073ffffffffffffffffffffffffffffffffffffffff16815250610517565b50506001909801975095508590506104a185610e90565b156104b6576104af85610e98565b94506104d8565b858989815181106104c357fe5b602002602001018181525050505050506104e1565b505050506103fd565b5050506001016103c2565b5092915050565b7f000000000000000000000000000000000000000000000000000000000000000081565b60208101518151606083015160009283928392839273ffffffffffffffffffffffffffffffffffffffff808216908416109284926105559290610ed3565b9050866080015173ffffffffffffffffffffffffffffffffffffffff16600014156105835760408701516000555b60005a90508173ffffffffffffffffffffffffffffffffffffffff1663128acb0830856105b38c60400151610f11565b6000038c6080015173ffffffffffffffffffffffffffffffffffffffff166000146105e2578c60800151610608565b876106015773fffd8963efd1fc6a506488495d951d5263988d25610608565b6401000276a45b8d602001518e606001518f60000151604051602001610629939291906120e8565b6040516020818303038152906040526040518663ffffffff1660e01b815260040161065895949392919061216f565b6040805180830381600087803b15801561067157600080fd5b505af19250505080156106bf575060408051601f3d9081017fffffffffffffffffffffffffffffffffffffffffffffffffffffffffffffffe01682019092526106bc91810190611f81565b60015b61073c573d8080156106ed576040519150601f19603f3d011682016040523d82523d6000602084013e6106f2565b606091505b505a82039450886080015173ffffffffffffffffffffffffffffffffffffffff166000141561072057600080555b61072b818487610f43565b975097509750975050505050610742565b50505050505b9193509193565b7f000000000000000000000000000000000000000000000000000000000000000081565b60208101518151606083015160009283928392839273ffffffffffffffffffffffffffffffffffffffff808216908416109284926107ab9290610ed3565b905060005a90508173ffffffffffffffffffffffffffffffffffffffff1663128acb0830856107dd8c60400151610f11565b60808d015173ffffffffffffffffffffffffffffffffffffffff1615610807578c6080015161082d565b876108265773fffd8963efd1fc6a506488495d951d5263988d2561082d565b6401000276a45b8d600001518e606001518f6020015160405160200161084e939291906120e8565b6040516020818303038152906040526040518663ffffffff1660e01b815260040161087d95949392919061216f565b6040805180830381600087803b15801561089657600080fd5b505af19250505080156108e4575060408051601f3d9081017fffffffffffffffffffffffffffffffffffffffffffffffffffffffffffffffe01682019092526108e191810190611f81565b60015b61073c573d808015610912576040519150601f19603f3d011682016040523d82523d6000602084013e610917565b606091505b505a8203945061072b818487610f43565b6000606080600061093886610e30565b67ffffffffffffffff8111801561094e57600080fd5b50604051908082528060200260200182016040528015610978578160200160208202803683370190505b50925061098486610e30565b67ffffffffffffffff8111801561099a57600080fd5b506040519080825280602002602001820160405280156109c4578160200160208202803683370190505b50915060005b60008060006109d88a610e5f565b925092509250600080600080610a5b6040518060a001604052808973ffffffffffffffffffffffffffffffffffffffff1681526020018873ffffffffffffffffffffffffffffffffffffffff1681526020018f81526020018762ffffff168152602001600073ffffffffffffffffffffffffffffffffffffffff1681525061076d565b9350935093509350828b8981518110610a7057fe5b602002602001019073ffffffffffffffffffffffffffffffffffffffff16908173ffffffffffffffffffffffffffffffffffffffff1681525050818a8981518110610ab757fe5b63ffffffff90921660209283029190910190910152929b50968201966001909601958b92610ae48e610e90565b1561035357610af28e610e98565b9d50505050505050506109ca565b6060805167ffffffffffffffff81118015610b1a57600080fd5b50604051908082528060200260200182016040528015610b44578160200160208202803683370190505b50915060005b83518110156104ec57600080848381518110610b6257fe5b602002602001015190506000868481518110610b7a57fe5b602002602001015190505b6000806000610b9384610e5f565b9250925092506000610c126040518060a001604052808673ffffffffffffffffffffffffffffffffffffffff1681526020018573ffffffffffffffffffffffffffffffffffffffff1681526020018881526020018462ffffff168152602001600073ffffffffffffffffffffffffffffffffffffffff1681525061076d565b5050600190980197509550859050610c2985610e90565b15610c3e57610c3785610e98565b9450610c60565b85898981518110610c4b57fe5b60200260200101818152505050505050610c69565b50505050610b85565b505050600101610b4a565b6000831380610c835750600082135b610c8c57600080fd5b6000806000610c9a84610e5f565b925092509250610ccc7f0000000000000000000000000000000000000000000000000000000000000000848484611017565b506000806000808913610d12578573ffffffffffffffffffffffffffffffffffffffff168573ffffffffffffffffffffffffffffffffffffffff1610888a600003610d47565b8473ffffffffffffffffffffffffffffffffffffffff168673ffffffffffffffffffffffffffffffffffffffff161089896000035b9250925092506000610d5a878787610ed3565b90506000808273ffffffffffffffffffffffffffffffffffffffff16633850c7bd6040518163ffffffff1660e01b815260040160e06040518083038186803b158015610da557600080fd5b505afa158015610db9573d6000803e3d6000fd5b505050506040513d601f19601f82011682018060405250810190610ddd9190612014565b5050505050915091508515610e0357604051848152826020820152816040820152606081fd5b60005415610e19576000548414610e1957600080fd5b604051858152826020820152816040820152606081fd5b805160177fffffffffffffffffffffffffffffffffffffffffffffffffffffffffffffffec909101045b919050565b60008080610e6d8482611036565b9250610e7a846014611136565b9050610e87846017611036565b91509193909250565b516042111590565b8051606090610ecd9083906017907fffffffffffffffffffffffffffffffffffffffffffffffffffffffffffffffe901611226565b92915050565b6000610f097f0000000000000000000000000000000000000000000000000000000000000000610f0486868661140d565b61148a565b949350505050565b60007f80000000000000000000000000000000000000000000000000000000000000008210610f3f57600080fd5b5090565b6000806000806000808773ffffffffffffffffffffffffffffffffffffffff16633850c7bd6040518163ffffffff1660e01b815260040160e06040518083038186803b158015610f9257600080fd5b505afa158015610fa6573d6000803e3d6000fd5b505050506040513d601f19601f82011682018060405250810190610fca9190612014565b50939650610fdf94508d93506115c092505050565b9197509550905061100773ffffffffffffffffffffffffffffffffffffffff891683836115fe565b9350869250505093509350935093565b600061102d8561102886868661140d565b611c56565b95945050505050565b6000818260140110156110aa57604080517f08c379a000000000000000000000000000000000000000000000000000000000815260206004820152601260248201527f746f416464726573735f6f766572666c6f770000000000000000000000000000604482015290519081900360640190fd5b816014018351101561111d57604080517f08c379a000000000000000000000000000000000000000000000000000000000815260206004820152601560248201527f746f416464726573735f6f75744f66426f756e64730000000000000000000000604482015290519081900360640190fd5b5001602001516c01000000000000000000000000900490565b6000818260030110156111aa57604080517f08c379a000000000000000000000000000000000000000000000000000000000815260206004820152601160248201527f746f55696e7432345f6f766572666c6f77000000000000000000000000000000604482015290519081900360640190fd5b816003018351101561121d57604080517f08c379a000000000000000000000000000000000000000000000000000000000815260206004820152601460248201527f746f55696e7432345f6f75744f66426f756e6473000000000000000000000000604482015290519081900360640190fd5b50016003015190565b60608182601f01101561129a57604080517f08c379a000000000000000000000000000000000000000000000000000000000815260206004820152600e60248201527f736c6963655f6f766572666c6f77000000000000000000000000000000000000604482015290519081900360640190fd5b82828401101561130b57604080517f08c379a000000000000000000000000000000000000000000000000000000000815260206004820152600e60248201527f736c6963655f6f766572666c6f77000000000000000000000000000000000000604482015290519081900360640190fd5b8183018451101561137d57604080517f08c379a000000000000000000000000000000000000000000000000000000000815260206004820152601160248201527f736c6963655f6f75744f66426f756e6473000000000000000000000000000000604482015290519081900360640190fd5b60608215801561139c5760405191506000825260208201604052611404565b6040519150601f8416801560200281840101858101878315602002848b0101015b818310156113d55780518352602092830192016113bd565b5050858452601f017fffffffffffffffffffffffffffffffffffffffffffffffffffffffffffffffe016604052505b50949350505050565b611415611cbf565b8273ffffffffffffffffffffffffffffffffffffffff168473ffffffffffffffffffffffffffffffffffffffff16111561144d579192915b506040805160608101825273ffffffffffffffffffffffffffffffffffffffff948516815292909316602083015262ffffff169181019190915290565b6000816020015173ffffffffffffffffffffffffffffffffffffffff16826000015173ffffffffffffffffffffffffffffffffffffffff16106114cc57600080fd5b508051602080830151604093840151845173ffffffffffffffffffffffffffffffffffffffff94851681850152939091168385015262ffffff166060808401919091528351808403820181526080840185528051908301207fff0000000000000000000000000000000000000000000000000000000000000060a085015294901b7fffffffffffffffffffffffffffffffffffffffff0000000000000000000000001660a183015260b58201939093527f708ef7fcba73b894862b667ec8c8ea3bef8c3f2a022dc8314152dfb52b4a1b6760d5808301919091528251808303909101815260f5909101909152805191012090565b600080600083516060146115dc575060009150819050806115f7565b838060200190518101906115f091906120ab565b9250925092505b9193909250565b60008060008060008060008060088b73ffffffffffffffffffffffffffffffffffffffff1663d0c93a7c6040518163ffffffff1660e01b815260040160206040518083038186803b15801561165257600080fd5b505afa158015611666573d6000803e3d6000fd5b505050506040513d602081101561167c57600080fd5b5051600290810b908c900b8161168e57fe5b0560020b901d905060006101008c73ffffffffffffffffffffffffffffffffffffffff1663d0c93a7c6040518163ffffffff1660e01b815260040160206040518083038186803b1580156116e157600080fd5b505afa1580156116f5573d6000803e3d6000fd5b505050506040513d602081101561170b57600080fd5b5051600290810b908d900b8161171d57fe5b0560020b8161172857fe5b079050600060088d73ffffffffffffffffffffffffffffffffffffffff1663d0c93a7c6040518163ffffffff1660e01b815260040160206040518083038186803b15801561177557600080fd5b505afa158015611789573d6000803e3d6000fd5b505050506040513d602081101561179f57600080fd5b5051600290810b908d900b816117b157fe5b0560020b901d905060006101008e73ffffffffffffffffffffffffffffffffffffffff1663d0c93a7c6040518163ffffffff1660e01b815260040160206040518083038186803b15801561180457600080fd5b505afa158015611818573d6000803e3d6000fd5b505050506040513d602081101561182e57600080fd5b5051600290810b908e900b8161184057fe5b0560020b8161184b57fe5b07905060008160ff166001901b8f73ffffffffffffffffffffffffffffffffffffffff16635339c296856040518263ffffffff1660e01b8152600401808260010b815260200191505060206040518083038186803b1580156118ac57600080fd5b505afa1580156118c0573d6000803e3d6000fd5b505050506040513d60208110156118d657600080fd5b50511611801561196957508d73ffffffffffffffffffffffffffffffffffffffff1663d0c93a7c6040518163ffffffff1660e01b815260040160206040518083038186803b15801561192757600080fd5b505afa15801561193b573d6000803e3d6000fd5b505050506040513d602081101561195157600080fd5b5051600290810b908d900b8161196357fe5b0760020b155b801561197a57508b60020b8d60020b135b945060008360ff166001901b8f73ffffffffffffffffffffffffffffffffffffffff16635339c296876040518263ffffffff1660e01b8152600401808260010b815260200191505060206040518083038186803b1580156119da57600080fd5b505afa1580156119ee573d6000803e3d6000fd5b505050506040513d6020811015611a0457600080fd5b505116118015611a9757508d73ffffffffffffffffffffffffffffffffffffffff1663d0c93a7c6040518163ffffffff1660e01b815260040160206040518083038186803b158015611a5557600080fd5b505afa158015611a69573d6000803e3d6000fd5b505050506040513d6020811015611a7f57600080fd5b5051600290810b908e900b81611a9157fe5b0760020b155b8015611aa857508b60020b8d60020b125b95508160010b8460010b1280611ad457508160010b8460010b148015611ad457508060ff168360ff1611155b15611aea57839950829750819850809650611af7565b8199508097508398508296505b50507fffffffffffffffffffffffffffffffffffffffffffffffffffffffffffffffff60ff87161b9150505b8560010b8760010b13611c2e578560010b8760010b1415611b68577fffffffffffffffffffffffffffffffffffffffffffffffffffffffffffffffff60ff858103161c165b6000818c73ffffffffffffffffffffffffffffffffffffffff16635339c2968a6040518263ffffffff1660e01b8152600401808260010b815260200191505060206040518083038186803b158015611bbf57600080fd5b505afa158015611bd3573d6000803e3d6000fd5b505050506040513d6020811015611be957600080fd5b5051169050611bf781611c86565b61ffff16989098019750506001909501947fffffffffffffffffffffffffffffffffffffffffffffffffffffffffffffffff611b23565b8115611c3b576001880397505b8215611c48576001880397505b505050505050509392505050565b6000611c62838361148a565b90503373ffffffffffffffffffffffffffffffffffffffff821614610ecd57600080fd5b6000805b8215610ecd577fffffffffffffffffffffffffffffffffffffffffffffffffffffffffffffffff830190921691600101611c8a565b604080516060810182526000808252602082018190529181019190915290565b600082601f830112611cef578081fd5b81356020611d04611cff83612361565b61233d565b8281528181019085830183850287018401881015611d20578586fd5b855b85811015611d3e57813584529284019290840190600101611d22565b5090979650505050505050565b600082601f830112611d5b578081fd5b813567ffffffffffffffff811115611d6f57fe5b611da060207fffffffffffffffffffffffffffffffffffffffffffffffffffffffffffffffe0601f8401160161233d565b818152846020838601011115611db4578283fd5b816020850160208301379081016020019190915292915050565b8051600281900b8114610e5a57600080fd5b600060a08284031215611df1578081fd5b60405160a0810181811067ffffffffffffffff82111715611e0e57fe5b6040529050808235611e1f8161237f565b81526020830135611e2f8161237f565b602082015260408381013590820152606083013562ffffff81168114611e5457600080fd5b6060820152611e6560808401611e71565b60808201525092915050565b8035610e5a8161237f565b805161ffff81168114610e5a57600080fd5b60008060408385031215611ea0578182fd5b823567ffffffffffffffff80821115611eb7578384fd5b818501915085601f830112611eca578384fd5b81356020611eda611cff83612361565b82815281810190858301885b85811015611f0f57611efd8c8684358b0101611d4b565b84529284019290840190600101611ee6565b50909750505086013592505080821115611f27578283fd5b50611f3485828601611cdf565b9150509250929050565b60008060408385031215611f50578182fd5b823567ffffffffffffffff811115611f66578283fd5b611f7285828601611d4b565b95602094909401359450505050565b60008060408385031215611f93578182fd5b505080516020909101519092909150565b600080600060608486031215611fb8578081fd5b8335925060208401359150604084013567ffffffffffffffff811115611fdc578182fd5b611fe886828701611d4b565b9150509250925092565b600060a08284031215612003578081fd5b61200d8383611de0565b9392505050565b600080600080600080600060e0888a03121561202e578485fd5b87516120398161237f565b965061204760208901611dce565b955061205560408901611e7c565b945061206360608901611e7c565b935061207160808901611e7c565b925060a088015160ff81168114612086578283fd5b60c0890151909250801515811461209b578182fd5b8091505092959891949750929550565b6000806000606084860312156120bf578081fd5b8351925060208401516120d18161237f565b91506120df60408501611dce565b90509250925092565b606093841b7fffffffffffffffffffffffffffffffffffffffff000000000000000000000000908116825260e89390931b7fffffff0000000000000000000000000000000000000000000000000000000000166014820152921b166017820152602b0190565b73ffffffffffffffffffffffffffffffffffffffff91909116815260200190565b600073ffffffffffffffffffffffffffffffffffffffff8088168352602087151581850152866040850152818616606085015260a06080850152845191508160a0850152825b828110156121d15785810182015185820160c0015281016121b5565b828111156121e2578360c084870101525b5050601f017fffffffffffffffffffffffffffffffffffffffffffffffffffffffffffffffe0169190910160c0019695505050505050565b6020808252825182820181905260009190848201906040850190845b8181101561225257835183529284019291840191600101612236565b50909695505050505050565b600060808201868352602060808185015281875180845260a0860191508289019350845b818110156122b457845173ffffffffffffffffffffffffffffffffffffffff1683529383019391830191600101612282565b505084810360408601528651808252908201925081870190845b818110156122f057825163ffffffff16855293830193918301916001016122ce565b5050505060609290920192909252949350505050565b93845273ffffffffffffffffffffffffffffffffffffffff92909216602084015263ffffffff166040830152606082015260800190565b60405181810167ffffffffffffffff8111828210171561235957fe5b604052919050565b600067ffffffffffffffff82111561237557fe5b5060209081020190565b73ffffffffffffffffffffffffffffffffffffffff811681146123a157600080fd5b5056fea164736f6c6343000706000a",
  "devdoc": {
    "details": "These functions are not gas efficient and should _not_ be called on chain. Instead, optimistically execute the swap and check the amounts in the callback.",
    "kind": "dev",
    "methods": {
      "blasterswapV3SwapCallback(int256,int256,bytes)": {
        "details": "In the implementation you must pay the pool tokens owed for the swap. The caller of this method must be checked to be a BlasterswapV3Pool deployed by the canonical BlasterswapV3Factory. amount0Delta and amount1Delta can both be 0 if no tokens were swapped.",
        "params": {
          "amount0Delta": "The amount of token0 that was sent (negative) or must be received (positive) by the pool by the end of the swap. If positive, the callback must send that amount of token0 to the pool.",
          "amount1Delta": "The amount of token1 that was sent (negative) or must be received (positive) by the pool by the end of the swap. If positive, the callback must send that amount of token1 to the pool.",
          "data": "Any data passed through by the caller via the IBlasterswapV3PoolActions#swap call"
        }
      },
      "quoteExactInput(bytes,uint256)": {
        "params": {
          "amountIn": "The amount of the first token to swap",
          "path": "The path of the swap, i.e. each token pair and the pool fee"
        },
        "returns": {
          "amountOut": "The amount of the last token that would be received",
          "gasEstimate": "The estimate of the gas that the swap consumes",
          "initializedTicksCrossedList": "List of the initialized ticks that the swap crossed for each pool in the path",
          "sqrtPriceX96AfterList": "List of the sqrt price after the swap for each pool in the path"
        }
      },
      "quoteExactInputSingle((address,address,uint256,uint24,uint160))": {
        "params": {
          "params": "The params for the quote, encoded as `QuoteExactInputSingleParams` tokenIn The token being swapped in tokenOut The token being swapped out fee The fee of the token pool to consider for the pair amountIn The desired input amount sqrtPriceLimitX96 The price limit of the pool that cannot be exceeded by the swap"
        },
        "returns": {
          "amountOut": "The amount of `tokenOut` that would be received",
          "gasEstimate": "The estimate of the gas that the swap consumes",
          "initializedTicksCrossed": "The number of initialized ticks that the swap crossed",
          "sqrtPriceX96After": "The sqrt price of the pool after the swap"
        }
      },
      "quoteExactOutput(bytes,uint256)": {
        "params": {
          "amountOut": "The amount of the last token to receive",
          "path": "The path of the swap, i.e. each token pair and the pool fee. Path must be provided in reverse order"
        },
        "returns": {
          "amountIn": "The amount of first token required to be paid",
          "gasEstimate": "The estimate of the gas that the swap consumes",
          "initializedTicksCrossedList": "List of the initialized ticks that the swap crossed for each pool in the path",
          "sqrtPriceX96AfterList": "List of the sqrt price after the swap for each pool in the path"
        }
      },
      "quoteExactOutputSingle((address,address,uint256,uint24,uint160))": {
        "params": {
          "params": "The params for the quote, encoded as `QuoteExactOutputSingleParams` tokenIn The token being swapped in tokenOut The token being swapped out fee The fee of the token pool to consider for the pair amountOut The desired output amount sqrtPriceLimitX96 The price limit of the pool that cannot be exceeded by the swap"
        },
        "returns": {
          "amountIn": "The amount required as the input for the swap in order to receive `amountOut`",
          "gasEstimate": "The estimate of the gas that the swap consumes",
          "initializedTicksCrossed": "The number of initialized ticks that the swap crossed",
          "sqrtPriceX96After": "The sqrt price of the pool after the swap"
        }
      }
    },
    "stateVariables": {
      "amountOutCached": {
        "details": "Transient storage variable used to check a safety condition in exact output swaps."
      }
    },
    "title": "Provides quotes for swaps",
    "version": 1
  },
  "userdoc": {
    "kind": "user",
    "methods": {
      "blasterswapV3SwapCallback(int256,int256,bytes)": {
        "notice": "Called to `msg.sender` after executing a swap via IBlasterswapV3Pool#swap."
      },
      "quoteExactInput(bytes,uint256)": {
        "notice": "Returns the amount out received for a given exact input swap without executing the swap"
      },
      "quoteExactInputSingle((address,address,uint256,uint24,uint160))": {
        "notice": "Returns the amount out received for a given exact input but for a swap of a single pool"
      },
      "quoteExactOutput(bytes,uint256)": {
        "notice": "Returns the amount in required for a given exact output swap without executing the swap"
      },
      "quoteExactOutputSingle((address,address,uint256,uint24,uint160))": {
        "notice": "Returns the amount in required to receive the given exact output amount but for a swap of a single pool"
      }
    },
    "notice": "Allows getting the expected amount out or amount in for a given swap without executing the swap",
    "version": 1
  },
  "storageLayout": {
    "storage": [
      {
        "astId": 8837,
        "contract": "contracts/lens/QuoterV2.sol:QuoterV2",
        "label": "amountOutCached",
        "offset": 0,
        "slot": "0",
        "type": "t_uint256"
      }
    ],
    "types": {
      "t_uint256": {
        "encoding": "inplace",
        "label": "uint256",
        "numberOfBytes": "32"
      }
    }
  }
}