{
  "address": "0xe741d11fAc103dCf177D03CA5DD027544edb4599",
  "abi": [
    {
      "inputs": [
        {
          "internalType": "address",
          "name": "_nonfungiblePositionManagerOut",
          "type": "address"
        },
        {
          "internalType": "address",
          "name": "_nonfungiblePositionManagerIn",
          "type": "address"
        }
      ],
      "stateMutability": "nonpayable",
      "type": "constructor"
    },
    {
      "anonymous": false,
      "inputs": [
        {
          "indexed": true,
          "internalType": "address",
          "name": "sender",
          "type": "address"
        },
        {
          "indexed": false,
          "internalType": "address",
          "name": "token0",
          "type": "address"
        },
        {
          "indexed": false,
          "internalType": "address",
          "name": "token1",
          "type": "address"
        },
        {
          "indexed": false,
          "internalType": "uint256",
          "name": "amount0Migrated",
          "type": "uint256"
        },
        {
          "indexed": false,
          "internalType": "uint256",
          "name": "amount1Migrated",
          "type": "uint256"
        }
      ],
      "name": "StolenFromThruster",
      "type": "event"
    },
    {
      "inputs": [],
      "name": "nonfungiblePositionManagerIn",
      "outputs": [
        {
          "internalType": "address",
          "name": "",
          "type": "address"
        }
      ],
      "stateMutability": "view",
      "type": "function"
    },
    {
      "inputs": [],
      "name": "nonfungiblePositionManagerOut",
      "outputs": [
        {
          "internalType": "address",
          "name": "",
          "type": "address"
        }
      ],
      "stateMutability": "view",
      "type": "function"
    },
    {
      "inputs": [
        {
          "internalType": "uint256",
          "name": "_inPositionTokenId",
          "type": "uint256"
        },
        {
          "internalType": "uint256",
          "name": "amount0Min",
          "type": "uint256"
        },
        {
          "internalType": "uint256",
          "name": "amount1Min",
          "type": "uint256"
        }
      ],
      "name": "stealLiquidityFromThruster",
      "outputs": [],
      "stateMutability": "nonpayable",
      "type": "function"
    }
  ],
  "transactionHash": "0xc18d1aead78415ab2a28d77c6bf559e0dc9ea3f4ba9a623327810d95d17d60c5",
  "args": [
    "0x434575eaea081b735c985fa9bf63cd7b87e227f9",
    "0x15DDAcF686cad96a52dB2f0fcFe3F3228c6FbF66"
  ],
  "numDeployments": 1,
  "solcInputHash": "86abffe36a5512360f64774752461e03",
  "bytecode": "0x60c060405234801561001057600080fd5b506040516111e13803806111e183398101604081905261002f91610069565b6001600160601b0319606092831b8116608052911b1660a05261009b565b80516001600160a01b038116811461006457600080fd5b919050565b6000806040838503121561007b578182fd5b6100848361004d565b91506100926020840161004d565b90509250929050565b60805160601c60a05160601c6110f26100ef600039806083528060b0528061016c52806101fe528061035152508061042352806104e952806105d3528061069952806107d45280610c5352506110f26000f3fe608060405234801561001057600080fd5b50600436106100415760003560e01c80630a5c101d146100465780633905fce2146100645780639e0b268014610079575b600080fd5b61004e610081565b60405161005b9190610eb4565b60405180910390f35b610077610072366004610d80565b6100a5565b005b61004e610c51565b7f000000000000000000000000000000000000000000000000000000000000000081565b6000806000806000807f000000000000000000000000000000000000000000000000000000000000000073ffffffffffffffffffffffffffffffffffffffff166399fbab888a6040518263ffffffff1660e01b815260040161010791906110dc565b6101806040518083038186803b15801561012057600080fd5b505afa158015610134573d6000803e3d6000fd5b505050506040513d601f19601f820116820180604052508101906101589190610dab565b5050505097509750975097509750975050507f000000000000000000000000000000000000000000000000000000000000000073ffffffffffffffffffffffffffffffffffffffff166323b872dd33308c6040518463ffffffff1660e01b81526004016101c793929190610ed5565b600060405180830381600087803b1580156101e157600080fd5b505af11580156101f5573d6000803e3d6000fd5b505050506000807f000000000000000000000000000000000000000000000000000000000000000073ffffffffffffffffffffffffffffffffffffffff16630c49ccbe6040518060a001604052808e8152602001866fffffffffffffffffffffffffffffffff1681526020016000815260200160008152602001428152506040518263ffffffff1660e01b815260040161028f9190610fe2565b6040805180830381600087803b1580156102a857600080fd5b505af11580156102bc573d6000803e3d6000fd5b505050506040513d601f19601f820116820180604052508101906102e09190610d5d565b604080516080810182528e81523360208201526fffffffffffffffffffffffffffffffff818301819052606082015290517ffc6f786500000000000000000000000000000000000000000000000000000000815292945090925073ffffffffffffffffffffffffffffffffffffffff7f0000000000000000000000000000000000000000000000000000000000000000169163fc6f78659161038491600401610f89565b6040805180830381600087803b15801561039d57600080fd5b505af11580156103b1573d6000803e3d6000fd5b505050506040513d601f19601f820116820180604052508101906103d59190610d5d565b50506040517fdd62ed3e00000000000000000000000000000000000000000000000000000000815273ffffffffffffffffffffffffffffffffffffffff89169063dd62ed3e9061044b9030907f000000000000000000000000000000000000000000000000000000000000000090600401610f2c565b60206040518083038186803b15801561046357600080fd5b505afa158015610477573d6000803e3d6000fd5b505050506040513d601f19601f8201168201806040525081019061049b9190610d0a565b610587576040517f095ea7b300000000000000000000000000000000000000000000000000000000815273ffffffffffffffffffffffffffffffffffffffff89169063095ea7b390610533907f0000000000000000000000000000000000000000000000000000000000000000907fffffffffffffffffffffffffffffffffffffffffffffffffffffffffffffffff90600401610f06565b602060405180830381600087803b15801561054d57600080fd5b505af1158015610561573d6000803e3d6000fd5b505050506040513d601f19601f820116820180604052508101906105859190610ce3565b505b6040517fdd62ed3e00000000000000000000000000000000000000000000000000000000815273ffffffffffffffffffffffffffffffffffffffff88169063dd62ed3e906105fb9030907f000000000000000000000000000000000000000000000000000000000000000090600401610f2c565b60206040518083038186803b15801561061357600080fd5b505afa158015610627573d6000803e3d6000fd5b505050506040513d601f19601f8201168201806040525081019061064b9190610d0a565b610737576040517f095ea7b300000000000000000000000000000000000000000000000000000000815273ffffffffffffffffffffffffffffffffffffffff88169063095ea7b3906106e3907f0000000000000000000000000000000000000000000000000000000000000000907fffffffffffffffffffffffffffffffffffffffffffffffffffffffffffffffff90600401610f06565b602060405180830381600087803b1580156106fd57600080fd5b505af1158015610711573d6000803e3d6000fd5b505050506040513d601f19601f820116820180604052508101906107359190610ce3565b505b604080516101608101825273ffffffffffffffffffffffffffffffffffffffff808b168252898116602083015262ffffff891682840152600288810b606084015287900b608083015260a0820185905260c0820184905260e082018d905261010082018c9052336101208301524261014083015291517f8831645600000000000000000000000000000000000000000000000000000000815290917f0000000000000000000000000000000000000000000000000000000000000000169063883164569061080990849060040161102e565b608060405180830381600087803b15801561082357600080fd5b505af1158015610837573d6000803e3d6000fd5b505050506040513d601f19601f8201168201806040525081019061085b9190610d22565b50506040517f70a082310000000000000000000000000000000000000000000000000000000081526000925073ffffffffffffffffffffffffffffffffffffffff8c1691506370a08231906108b4903090600401610eb4565b60206040518083038186803b1580156108cc57600080fd5b505afa1580156108e0573d6000803e3d6000fd5b505050506040513d601f19601f820116820180604052508101906109049190610d0a565b1115610a27576040517f70a0823100000000000000000000000000000000000000000000000000000000815273ffffffffffffffffffffffffffffffffffffffff8a169063a9059cbb90339083906370a0823190610966903090600401610eb4565b60206040518083038186803b15801561097e57600080fd5b505afa158015610992573d6000803e3d6000fd5b505050506040513d601f19601f820116820180604052508101906109b69190610d0a565b6040518363ffffffff1660e01b81526004016109d3929190610f06565b602060405180830381600087803b1580156109ed57600080fd5b505af1158015610a01573d6000803e3d6000fd5b505050506040513d601f19601f82011682018060405250810190610a259190610ce3565b505b6040517f70a0823100000000000000000000000000000000000000000000000000000000815260009073ffffffffffffffffffffffffffffffffffffffff8a16906370a0823190610a7c903090600401610eb4565b60206040518083038186803b158015610a9457600080fd5b505afa158015610aa8573d6000803e3d6000fd5b505050506040513d601f19601f82011682018060405250810190610acc9190610d0a565b1115610bef576040517f70a0823100000000000000000000000000000000000000000000000000000000815273ffffffffffffffffffffffffffffffffffffffff89169063a9059cbb90339083906370a0823190610b2e903090600401610eb4565b60206040518083038186803b158015610b4657600080fd5b505afa158015610b5a573d6000803e3d6000fd5b505050506040513d601f19601f82011682018060405250810190610b7e9190610d0a565b6040518363ffffffff1660e01b8152600401610b9b929190610f06565b602060405180830381600087803b158015610bb557600080fd5b505af1158015610bc9573d6000803e3d6000fd5b505050506040513d601f19601f82011682018060405250810190610bed9190610ce3565b505b3373ffffffffffffffffffffffffffffffffffffffff167f3b21665cb9ad7ac375126bc843b706a298293146b9f495e31af9cb23c7fedef78a8a8686604051610c3b9493929190610f53565b60405180910390a2505050505050505050505050565b7f000000000000000000000000000000000000000000000000000000000000000081565b805173ffffffffffffffffffffffffffffffffffffffff81168114610c9957600080fd5b919050565b8051600281900b8114610c9957600080fd5b80516fffffffffffffffffffffffffffffffff81168114610c9957600080fd5b805162ffffff81168114610c9957600080fd5b600060208284031215610cf4578081fd5b81518015158114610d03578182fd5b9392505050565b600060208284031215610d1b578081fd5b5051919050565b60008060008060808587031215610d37578283fd5b84519350610d4760208601610cb0565b6040860151606090960151949790965092505050565b60008060408385031215610d6f578182fd5b505080516020909101519092909150565b600080600060608486031215610d94578283fd5b505081359360208301359350604090920135919050565b6000806000806000806000806000806000806101808d8f031215610dcd578788fd5b8c516bffffffffffffffffffffffff81168114610de8578889fd5b9b50610df660208e01610c75565b9a50610e0460408e01610c75565b9950610e1260608e01610c75565b9850610e2060808e01610cd0565b9750610e2e60a08e01610c9e565b9650610e3c60c08e01610c9e565b9550610e4a60e08e01610cb0565b94506101008d015193506101208d01519250610e696101408e01610cb0565b9150610e786101608e01610cb0565b90509295989b509295989b509295989b565b73ffffffffffffffffffffffffffffffffffffffff169052565b60020b9052565b62ffffff169052565b73ffffffffffffffffffffffffffffffffffffffff91909116815260200190565b73ffffffffffffffffffffffffffffffffffffffff9384168152919092166020820152604081019190915260600190565b73ffffffffffffffffffffffffffffffffffffffff929092168252602082015260400190565b73ffffffffffffffffffffffffffffffffffffffff92831681529116602082015260400190565b73ffffffffffffffffffffffffffffffffffffffff94851681529290931660208301526040820152606081019190915260800190565b8151815260208083015173ffffffffffffffffffffffffffffffffffffffff16908201526040808301516fffffffffffffffffffffffffffffffff90811691830191909152606092830151169181019190915260800190565b600060a082019050825182526fffffffffffffffffffffffffffffffff602084015116602083015260408301516040830152606083015160608301526080830151608083015292915050565b600061016082019050611042828451610e8a565b60208301516110546020840182610e8a565b5060408301516110676040840182610eab565b50606083015161107a6060840182610ea4565b50608083015161108d6080840182610ea4565b5060a083015160a083015260c083015160c083015260e083015160e0830152610100808401518184015250610120808401516110cb82850182610e8a565b505061014092830151919092015290565b9081526020019056fea164736f6c6343000706000a",
  "devdoc": {
    "kind": "dev",
    "methods": {
      "stealLiquidityFromThruster(uint256,uint256,uint256)": {
        "params": {
          "_inPositionTokenId": "Thruster V3 position nft id",
          "amount0Min": "minimum amount of token0 to receive from decresing liquidity adjusted for slippage",
          "amount1Min": "minimum amount of token1 to receive from decresing liquidity adjusted for slippage"
        }
      }
    },
    "version": 1
  },
  "userdoc": {
    "kind": "user",
    "methods": {
      "stealLiquidityFromThruster(uint256,uint256,uint256)": {
        "notice": "migrates liquidity from Thruster V3, position nft must be appoved to this contract before calling"
      }
    },
    "version": 1
  },
  "storageLayout": {
    "storage": [],
    "types": null
  }
}